:100000000C942A000C943F000C943F000C943F0089
:100010000C943F000C943F000C943F000C943F0064
:100020000C943F000C943F000C943F000C943F0054
:100030000C943F000C943F000C943F000C943F0044
:100040000C943F000C943F000C943F000C943F0034
:100050000C943F0011241FBECFE5D8E0DEBFCDBF1A
:1000600010E0A0E6B0E0EAEDF7E002C005900D92E6
:10007000A037B107D9F70E9458020C94EB030C94F7
:100080000000843008F075C0683008F072C0442366
:10009000D1F58130A1F0813030F08230E1F0833051
:1000A00009F067C024C02BB381E090E002C0880F44
:1000B000991F6A95E2F7809582238BBB089528B338
:1000C00081E090E002C0880F991F6A95E2F7809561
:1000D000822388BB089525B381E090E002C0880F99
:1000E000991F6A95E2F78095822385BB089522B314
:1000F00081E090E002C0880F991F6A95E2F7809531
:10010000822382BB08954130A1F5813091F0813086
:1001100028F08230C9F0833061F521C02BB381E033
:1001200090E002C0880F991F6A95E2F7282B2BBB3D
:10013000089528B381E090E002C0880F991F6A9566
:10014000E2F7282B28BB089525B381E090E002C098
:10015000880F991F6A95E2F7282B25BB089522B3D3
:1001600081E090E002C0880F991F6A95E2F7282B82
:1001700022BB0895843008F075C0683008F072C062
:100180004423D1F58130A1F0813030F08230E1F0AC
:10019000833009F067C024C02AB381E090E002C038
:1001A000880F991F6A95E2F7809582238ABB08958C
:1001B00027B381E090E002C0880F991F6A95E2F7AB
:1001C0008095822387BB089524B381E090E002C02C
:1001D000880F991F6A95E2F78095822384BB089562
:1001E00021B381E090E002C0880F991F6A95E2F781
:1001F0008095822381BB08954130A1F5813091F033
:10020000813028F08230C9F0833061F521C02AB3F3
:1002100081E090E002C0880F991F6A95E2F7282BD1
:100220002ABB089527B381E090E002C0880F991F90
:100230006A95E2F7282B27BB089524B381E090E06C
:1002400002C0880F991F6A95E2F7282B24BB0895F6
:1002500021B381E090E002C0880F991F6A95E2F710
:10026000282B21BB0895843080F4813049F08130FF
:1002700028F0823039F0833041F406C06BBB08951A
:1002800068BB089565BB089562BB0895843080F40F
:10029000813049F0813028F0823039F0833041F4E8
:1002A00006C06ABB089567BB089564BB089561BB2F
:1002B0000895843000F56830F0F4813049F08130E1
:1002C00028F0823039F08330B1F40DC089B303C017
:1002D00086B301C083B390E002C0959587956A9577
:1002E000E2F78170089580B390E002C095958795FC
:1002F0006A95E2F781700895AF92BF92DF92EF9214
:10030000FF920F931F93CF93DF93EE24EA94C0E004
:10031000D0E090E2A92E9EE4B92EDC2E81E06C2F75
:1003200040E00E9441008E01005A1F4F84E0F82EE9
:1003300081E06F2D0E945901882359F4F801E08073
:10034000C5010197F1F781E06F2D0E9459018823C3
:10035000D1F3F3940C5F1F4FF8E0FF1649F781E0EB
:100360006D2D41E00E9441002196C430D105A9F6CF
:100370008E2DDF91CF911F910F91FF90EF90DF9025
:10038000BF90AF900895FF920F931F93F82E82E0D5
:1003900060E041E00E94410000ED17E0C8010197D4
:1003A000F1F782E061E040E00E944100C80101975E
:1003B000F1F782E062E041E00E944100C80101974C
:1003C000F1F783E06F2D0E943301C8010197F1F727
:1003D00082E062E040E00E9441001F910F91FF9097
:1003E0000895EF92FF921F93CF93DF93EC0110E0FB
:1003F00080EDE82E87E0F82E06C00E94C301C701F9
:100400000197F1F71F5FFE01E10FF11D8081882345
:10041000A1F7DF91CF911F91FF90EF9008951F9367
:10042000182F82E060E040E00E94410082E061E03D
:1004300040E00E94410082E062E041E00E94410011
:1004400083E0612F0E94330182E062E040E00E947D
:1004500041001F910895662321F480680E940F02D5
:100460000895613021F4805C80680E940F02089535
:100470000F931F9381E090E00197F1F788E30E94CA
:100480000F0200ED17E0C8010197F1F78EE00E941E
:100490000F02C8010197F1F781E00E940F02C80125
:1004A0000197F1F786E00E940F021F910F910895C6
:1004B0008F929F92AF92BF92CF92DF92EF92FF9274
:1004C0000F931F93DF93CF93CDB7DEB764970FB62B
:1004D000F894DEBF0FBECDBF81E06FE00E94460101
:1004E00083E06FEF0E94460182E060E041E00E94FD
:1004F000BA0082E061E041E00E94BA0082E062E07E
:1005000041E00E94BA0081E060EF0E9433010E9446
:10051000380210E026E0C22ED12CCC0EDD1E7E016A
:100520000894E11CF11C9BE0A92EB12CAC0EBD1E61
:1005300008C0882411E08BE2982E03C0902E8824F6
:1005400011E00E947C01082F8F3FD9F30E94C30164
:100550000B3279F30D3291F30F3281F30A3271F3DA
:100560000D3309F0A6C02BE2921669F0291520F090
:100570003AE2931631F76CC08DE2981621F12FE222
:100580009216F9F642C0C7010E9494038C01C6017D
:100590000E949403800F911FB5014AE050E00E9431
:1005A000B203C5010E94F10180E090E0F701E80F7D
:1005B000F91F1082F601E80FF91F108201968530AD
:1005C0009105A1F76AC0C7010E9494038C01C6017E
:1005D0000E9494039801281B390BC901B5014AE018
:1005E00050E00E94B203C5010E94F10180E090E05A
:1005F000F701E80FF91F1082F601E80FF91F1082CA
:10060000019685309105A1F748C0C7010E94940367
:100610008C01C6010E949403BC01C8010E946D03B5
:10062000CB01B5014AE050E00E94B203C5010E942F
:10063000F10180E090E0F701E80FF91F1082F60168
:10064000E80FF91F1082019685309105A1F725C0AA
:10065000C7010E9494038C01C6010E9494039C016F
:10066000209FC001219F900D309F900D1124B50156
:100670004AE050E00E94B203C5010E94F10180E00F
:1006800090E0F701E80FF91F1082F601E80FF91F5B
:100690001082019685309105A1F71C861B861E8667
:1006A0001D86188A1F861A8A198A1C8A1B8A10E0DE
:1006B00048CF033621F481E00E940F0242CFE82D9B
:1006C000F0E0882D8F5F112319F4EE0DFF1D02C09D
:1006D000EC0DFD1D0083882E34CF97FB092E0726D5
:1006E0000AD077FD04D00CD006D000201AF4709503
:1006F00061957F4F0895F6F7909581959F4F0895E6
:10070000AA1BBB1B51E107C0AA1FBB1FA617B70737
:1007100010F0A61BB70B881F991F5A95A9F7809553
:100720009095BC01CD010895FC0188279927E89494
:1007300021912032E9F3293010F02E30C8F32B320A
:1007400041F02D3239F4689404C00E94D303820F23
:10075000911D219120532A30C0F31EF4909581956C
:100760009F4F0895FB019F01E8944230C4F0453249
:10077000B4F44A3029F497FB1EF4909581959F4F6D
:10078000642F77270E948003805D8A330CF0895D97
:100790008193CB010097A1F716F45DE2519310828B
:1007A000C9010C94DB037AE0979F902D879F802DE1
:1007B000910D11240895DC01FC01672F71917723BD
:1007C000E1F7329704C07C916D9370836291AE170C
:0A07D000BF07C8F30895F894FFCFA7
:1007DA003738392F3435362A3132332D63303D2BB1
:00000001FF
